{
  "abi": [
    {
      "inputs": [
        {
          "internalType": "address",
          "name": "player_address",
          "type": "address"
        }
      ],
      "stateMutability": "nonpayable",
      "type": "constructor"
    },
    {
      "inputs": [],
      "name": "challenge",
      "outputs": [
        {
          "internalType": "address",
          "name": "",
          "type": "address"
        }
      ],
      "stateMutability": "view",
      "type": "function"
    },
    {
      "inputs": [],
      "name": "deploy",
      "outputs": [
        {
          "internalType": "address",
          "name": "",
          "type": "address"
        }
      ],
      "stateMutability": "nonpayable",
      "type": "function"
    },
    {
      "inputs": [],
      "name": "isSolved",
      "outputs": [
        {
          "internalType": "bool",
          "name": "",
          "type": "bool"
        }
      ],
      "stateMutability": "view",
      "type": "function"
    },
    {
      "inputs": [],
      "name": "player_address",
      "outputs": [
        {
          "internalType": "address",
          "name": "",
          "type": "address"
        }
      ],
      "stateMutability": "view",
      "type": "function"
    }
  ],
  "bytecode": "608060405234801561001057600080fd5b5060405161045638038061045683398101604081905261002f916100b9565b600180546001600160a01b0319166001600160a01b0383161790558061005361007b565b600080546001600160a01b0319166001600160a01b0392909216919091179055506100e99050565b60008060405161008a906100ad565b604051809103906000f0801580156100a6573d6000803e3d6000fd5b5092915050565b60c88061038e83390190565b6000602082840312156100cb57600080fd5b81516001600160a01b03811681146100e257600080fd5b9392505050565b610296806100f86000396000f3fe608060405234801561001057600080fd5b506004361061004c5760003560e01c806320c4ad961461005157806364d98f6e14610081578063775c300c14610099578063d2ef7398146100a1575b600080fd5b600154610064906001600160a01b031681565b6040516001600160a01b0390911681526020015b60405180910390f35b6100896100b4565b6040519015158152602001610078565b610064610131565b600054610064906001600160a01b031681565b60008060009054906101000a90046001600160a01b03166001600160a01b03166364d98f6e6040518163ffffffff1660e01b8152600401602060405180830381865afa158015610108573d6000803e3d6000fd5b505050506040513d601f19601f8201168201806040525081019061012c919061016f565b905090565b60008060405161014090610163565b604051809103906000f08015801561015c573d6000803e3d6000fd5b5092915050565b60c88061019983390190565b60006020828403121561018157600080fd5b8151801515811461019157600080fd5b939250505056fe60806040526000805460ff19169055348015601957600080fd5b5060a0806100286000396000f3fe6080604052348015600f57600080fd5b506004361060325760003560e01c80633d71bea514603757806364d98f6e14604a575b600080fd5b60486000805460ff19166001179055565b005b60005460569060ff1681565b604051901515815260200160405180910390f3fea264697066735822122039b40b0b54c54003c149e0d909e6829822f0b0b72e7468ce93e2d1cf023eb8fb64736f6c63430008130033a2646970667358221220a16bf01567376b59998e0554e26dadbcd5e5aa5d9b32a0df4f8dede5a6c7706264736f6c6343000813003360806040526000805460ff19169055348015601957600080fd5b5060a0806100286000396000f3fe6080604052348015600f57600080fd5b506004361060325760003560e01c80633d71bea514603757806364d98f6e14604a575b600080fd5b60486000805460ff19166001179055565b005b60005460569060ff1681565b604051901515815260200160405180910390f3fea264697066735822122039b40b0b54c54003c149e0d909e6829822f0b0b72e7468ce93e2d1cf023eb8fb64736f6c63430008130033",
  "bytecodeSha1": "f49c9c6c0221c13daf820da88e1f31c32adf7b6a",
  "compiler": {
    "evm_version": "istanbul",
    "optimizer": {
      "enabled": true,
      "runs": 200
    },
    "version": "0.8.19+commit.7dd6d404"
  },
  "contractName": "SetupSolveMe",
  "language": "Solidity",
  "natspec": {
    "details": "This is the Setup Contract which checks if the challenge is solved or not (not a part of the challenge)",
    "kind": "dev",
    "methods": {},
    "version": 1
  },
  "opcodes": "PUSH1 0x80 PUSH1 0x40 MSTORE CALLVALUE DUP1 ISZERO PUSH2 0x10 JUMPI PUSH1 0x0 DUP1 REVERT JUMPDEST POP PUSH1 0x4 CALLDATASIZE LT PUSH2 0x4C JUMPI PUSH1 0x0 CALLDATALOAD PUSH1 0xE0 SHR DUP1 PUSH4 0x20C4AD96 EQ PUSH2 0x51 JUMPI DUP1 PUSH4 0x64D98F6E EQ PUSH2 0x81 JUMPI DUP1 PUSH4 0x775C300C EQ PUSH2 0x99 JUMPI DUP1 PUSH4 0xD2EF7398 EQ PUSH2 0xA1 JUMPI JUMPDEST PUSH1 0x0 DUP1 REVERT JUMPDEST PUSH1 0x1 SLOAD PUSH2 0x64 SWAP1 PUSH1 0x1 PUSH1 0x1 PUSH1 0xA0 SHL SUB AND DUP2 JUMP JUMPDEST PUSH1 0x40 MLOAD PUSH1 0x1 PUSH1 0x1 PUSH1 0xA0 SHL SUB SWAP1 SWAP2 AND DUP2 MSTORE PUSH1 0x20 ADD JUMPDEST PUSH1 0x40 MLOAD DUP1 SWAP2 SUB SWAP1 RETURN JUMPDEST PUSH2 0x89 PUSH2 0xB4 JUMP JUMPDEST PUSH1 0x40 MLOAD SWAP1 ISZERO ISZERO DUP2 MSTORE PUSH1 0x20 ADD PUSH2 0x78 JUMP JUMPDEST PUSH2 0x64 PUSH2 0x131 JUMP JUMPDEST PUSH1 0x0 SLOAD PUSH2 0x64 SWAP1 PUSH1 0x1 PUSH1 0x1 PUSH1 0xA0 SHL SUB AND DUP2 JUMP JUMPDEST PUSH1 0x0 DUP1 PUSH1 0x0 SWAP1 SLOAD SWAP1 PUSH2 0x100 EXP SWAP1 DIV PUSH1 0x1 PUSH1 0x1 PUSH1 0xA0 SHL SUB AND PUSH1 0x1 PUSH1 0x1 PUSH1 0xA0 SHL SUB AND PUSH4 0x64D98F6E PUSH1 0x40 MLOAD DUP2 PUSH4 0xFFFFFFFF AND PUSH1 0xE0 SHL DUP2 MSTORE PUSH1 0x4 ADD PUSH1 0x20 PUSH1 0x40 MLOAD DUP1 DUP4 SUB DUP2 DUP7 GAS STATICCALL ISZERO DUP1 ISZERO PUSH2 0x108 JUMPI RETURNDATASIZE PUSH1 0x0 DUP1 RETURNDATACOPY RETURNDATASIZE PUSH1 0x0 REVERT JUMPDEST POP POP POP POP PUSH1 0x40 MLOAD RETURNDATASIZE PUSH1 0x1F NOT PUSH1 0x1F DUP3 ADD AND DUP3 ADD DUP1 PUSH1 0x40 MSTORE POP DUP2 ADD SWAP1 PUSH2 0x12C SWAP2 SWAP1 PUSH2 0x16F JUMP JUMPDEST SWAP1 POP SWAP1 JUMP JUMPDEST PUSH1 0x0 DUP1 PUSH1 0x40 MLOAD PUSH2 0x140 SWAP1 PUSH2 0x163 JUMP JUMPDEST PUSH1 0x40 MLOAD DUP1 SWAP2 SUB SWAP1 PUSH1 0x0 CREATE DUP1 ISZERO DUP1 ISZERO PUSH2 0x15C JUMPI RETURNDATASIZE PUSH1 0x0 DUP1 RETURNDATACOPY RETURNDATASIZE PUSH1 0x0 REVERT JUMPDEST POP SWAP3 SWAP2 POP POP JUMP JUMPDEST PUSH1 0xC8 DUP1 PUSH2 0x199 DUP4 CODECOPY ADD SWAP1 JUMP JUMPDEST PUSH1 0x0 PUSH1 0x20 DUP3 DUP5 SUB SLT ISZERO PUSH2 0x181 JUMPI PUSH1 0x0 DUP1 REVERT JUMPDEST DUP2 MLOAD DUP1 ISZERO ISZERO DUP2 EQ PUSH2 0x191 JUMPI PUSH1 0x0 DUP1 REVERT JUMPDEST SWAP4 SWAP3 POP POP POP JUMP INVALID PUSH1 0x80 PUSH1 0x40 MSTORE PUSH1 0x0 DUP1 SLOAD PUSH1 0xFF NOT AND SWAP1 SSTORE CALLVALUE DUP1 ISZERO PUSH1 0x19 JUMPI PUSH1 0x0 DUP1 REVERT JUMPDEST POP PUSH1 0xA0 DUP1 PUSH2 0x28 PUSH1 0x0 CODECOPY PUSH1 0x0 RETURN INVALID PUSH1 0x80 PUSH1 0x40 MSTORE CALLVALUE DUP1 ISZERO PUSH1 0xF JUMPI PUSH1 0x0 DUP1 REVERT JUMPDEST POP PUSH1 0x4 CALLDATASIZE LT PUSH1 0x32 JUMPI PUSH1 0x0 CALLDATALOAD PUSH1 0xE0 SHR DUP1 PUSH4 0x3D71BEA5 EQ PUSH1 0x37 JUMPI DUP1 PUSH4 0x64D98F6E EQ PUSH1 0x4A JUMPI JUMPDEST PUSH1 0x0 DUP1 REVERT JUMPDEST PUSH1 0x48 PUSH1 0x0 DUP1 SLOAD PUSH1 0xFF NOT AND PUSH1 0x1 OR SWAP1 SSTORE JUMP JUMPDEST STOP JUMPDEST PUSH1 0x0 SLOAD PUSH1 0x56 SWAP1 PUSH1 0xFF AND DUP2 JUMP JUMPDEST PUSH1 0x40 MLOAD SWAP1 ISZERO ISZERO DUP2 MSTORE PUSH1 0x20 ADD PUSH1 0x40 MLOAD DUP1 SWAP2 SUB SWAP1 RETURN INVALID LOG2 PUSH5 0x6970667358 0x22 SLT KECCAK256 CODECOPY 0xB4 SIGNEXTEND SIGNEXTEND SLOAD 0xC5 BLOCKHASH SUB 0xC1 0x49 0xE0 0xD9 MULMOD 0xE6 DUP3 SWAP9 0x22 CREATE 0xB0 0xB7 0x2E PUSH21 0x68CE93E2D1CF023EB8FB64736F6C63430008130033 LOG2 PUSH5 0x6970667358 0x22 SLT KECCAK256 LOG1 PUSH12 0xF01567376B59998E0554E26D 0xAD 0xBC 0xD5 0xE5 0xAA 0x5D SWAP12 ORIGIN LOG0 0xDF 0x4F DUP14 0xED 0xE5 0xA6 0xC7 PUSH17 0x6264736F6C634300081300330000000000 ",
  "sha1": "847879426a3aeb2651c3d7b81d98c6b970d901a5",
  "source": "// SPDX-License-Identifier: MIT\n\npragma solidity ^0.8.0;\n\nimport {Setup} from \"./Setup.sol\";\n/**\n * @title SolveMe\n * @author BlueAlder duc.tf\n */\n\ncontract SolveMe {\n    bool public isSolved = false;\n\n    function solveChallenge() external {\n        isSolved = true;\n    }\n}\n\n/**\n * @dev This is the Setup Contract which checks if the challenge is solved or not\n * (not a part of the challenge)\n */\ncontract SetupSolveMe is Setup {\n    constructor(address player_address) Setup(player_address) {}\n\n    function deploy() public override returns (address) {\n        SolveMe _instance = new SolveMe();\n        return address(_instance);\n    }\n\n    function isSolved() external view override returns (bool) {\n        return SolveMe(challenge).isSolved();\n    }\n}\n",
  "sourcePath": "contracts/SolveMe.sol",
  "type": "contract"
}