{
  "abi": [
    {
      "inputs": [],
      "name": "isSolved",
      "outputs": [
        {
          "internalType": "bool",
          "name": "",
          "type": "bool"
        }
      ],
      "stateMutability": "view",
      "type": "function"
    },
    {
      "inputs": [],
      "name": "solveChallenge",
      "outputs": [],
      "stateMutability": "nonpayable",
      "type": "function"
    }
  ],
  "bytecode": "60806040526000805460ff19169055348015601957600080fd5b5060a0806100286000396000f3fe6080604052348015600f57600080fd5b506004361060325760003560e01c80633d71bea514603757806364d98f6e14604a575b600080fd5b60486000805460ff19166001179055565b005b60005460569060ff1681565b604051901515815260200160405180910390f3fea26469706673582212202cf35ffa2fc74a8502e39e694334735cee307546e202e3a9d398e437b172fa7e64736f6c63430008150033",
  "bytecodeSha1": "8062dbc09c4056a7e1783a0e4ef9997ee38c81a1",
  "compiler": {
    "evm_version": "istanbul",
    "optimizer": {
      "enabled": true,
      "runs": 200
    },
    "version": "0.8.21+commit.d9974bed"
  },
  "contractName": "SolveMe",
  "language": "Solidity",
  "natspec": {
    "author": "BlueAlder duc.tf",
    "kind": "dev",
    "methods": {},
    "title": "SolveMe",
    "version": 1
  },
  "opcodes": "PUSH1 0x80 PUSH1 0x40 MSTORE CALLVALUE DUP1 ISZERO PUSH1 0xF JUMPI PUSH1 0x0 DUP1 REVERT JUMPDEST POP PUSH1 0x4 CALLDATASIZE LT PUSH1 0x32 JUMPI PUSH1 0x0 CALLDATALOAD PUSH1 0xE0 SHR DUP1 PUSH4 0x3D71BEA5 EQ PUSH1 0x37 JUMPI DUP1 PUSH4 0x64D98F6E EQ PUSH1 0x4A JUMPI JUMPDEST PUSH1 0x0 DUP1 REVERT JUMPDEST PUSH1 0x48 PUSH1 0x0 DUP1 SLOAD PUSH1 0xFF NOT AND PUSH1 0x1 OR SWAP1 SSTORE JUMP JUMPDEST STOP JUMPDEST PUSH1 0x0 SLOAD PUSH1 0x56 SWAP1 PUSH1 0xFF AND DUP2 JUMP JUMPDEST PUSH1 0x40 MLOAD SWAP1 ISZERO ISZERO DUP2 MSTORE PUSH1 0x20 ADD PUSH1 0x40 MLOAD DUP1 SWAP2 SUB SWAP1 RETURN INVALID LOG2 PUSH5 0x6970667358 0x22 SLT KECCAK256 0x2C RETURN PUSH0 STATICCALL 0x2F 0xC7 0x4A DUP6 MUL 0xE3 SWAP15 PUSH10 0x4334735CEE307546E202 0xE3 0xA9 0xD3 SWAP9 0xE4 CALLDATACOPY 0xB1 PUSH19 0xFA7E64736F6C63430008150033000000000000 ",
  "sha1": "79217e7c29670f4f6487b244ac9fa2d53d9de108",
  "source": "// SPDX-License-Identifier: MIT\n\npragma solidity ^0.8.0;\n\nimport {Setup} from \"./Setup.sol\";\n/**\n * @title SolveMe\n * @author BlueAlder duc.tf\n */\n\ncontract SolveMe {\n    bool public isSolved = false;\n\n    function solveChallenge() external {\n        isSolved = true;\n    }\n}\n\n/**\n * @dev This is the Setup Contract which checks if the challenge is solved or not\n * (not a part of the challenge)\n */\ncontract SetupSolveMe is Setup {\n    constructor(address player_address) payable Setup(player_address) {}\n\n    function deploy() public override returns (address) {\n        SolveMe _instance = new SolveMe();\n        return address(_instance);\n    }\n\n    function isSolved() external view override returns (bool) {\n        return SolveMe(challenge).isSolved();\n    }\n}\n",
  "sourcePath": "contracts/SolveMe.sol",
  "type": "contract"
}