{
  "abi": [
    {
      "inputs": [],
      "name": "isSolved",
      "outputs": [
        {
          "internalType": "bool",
          "name": "",
          "type": "bool"
        }
      ],
      "stateMutability": "view",
      "type": "function"
    },
    {
      "inputs": [],
      "name": "solveChallenge",
      "outputs": [],
      "stateMutability": "nonpayable",
      "type": "function"
    }
  ],
  "bytecode": "60806040526000805460ff19169055348015601957600080fd5b5060a0806100286000396000f3fe6080604052348015600f57600080fd5b506004361060325760003560e01c80633d71bea514603757806364d98f6e14604a575b600080fd5b60486000805460ff19166001179055565b005b60005460569060ff1681565b604051901515815260200160405180910390f3fea264697066735822122039b40b0b54c54003c149e0d909e6829822f0b0b72e7468ce93e2d1cf023eb8fb64736f6c63430008130033",
  "bytecodeSha1": "8062dbc09c4056a7e1783a0e4ef9997ee38c81a1",
  "compiler": {
    "evm_version": "istanbul",
    "optimizer": {
      "enabled": true,
      "runs": 200
    },
    "version": "0.8.19+commit.7dd6d404"
  },
  "contractName": "SolveMe",
  "language": "Solidity",
  "natspec": {
    "author": "BlueAlder duc.tf",
    "kind": "dev",
    "methods": {},
    "title": "SolveMe",
    "version": 1
  },
  "opcodes": "PUSH1 0x80 PUSH1 0x40 MSTORE CALLVALUE DUP1 ISZERO PUSH1 0xF JUMPI PUSH1 0x0 DUP1 REVERT JUMPDEST POP PUSH1 0x4 CALLDATASIZE LT PUSH1 0x32 JUMPI PUSH1 0x0 CALLDATALOAD PUSH1 0xE0 SHR DUP1 PUSH4 0x3D71BEA5 EQ PUSH1 0x37 JUMPI DUP1 PUSH4 0x64D98F6E EQ PUSH1 0x4A JUMPI JUMPDEST PUSH1 0x0 DUP1 REVERT JUMPDEST PUSH1 0x48 PUSH1 0x0 DUP1 SLOAD PUSH1 0xFF NOT AND PUSH1 0x1 OR SWAP1 SSTORE JUMP JUMPDEST STOP JUMPDEST PUSH1 0x0 SLOAD PUSH1 0x56 SWAP1 PUSH1 0xFF AND DUP2 JUMP JUMPDEST PUSH1 0x40 MLOAD SWAP1 ISZERO ISZERO DUP2 MSTORE PUSH1 0x20 ADD PUSH1 0x40 MLOAD DUP1 SWAP2 SUB SWAP1 RETURN INVALID LOG2 PUSH5 0x6970667358 0x22 SLT KECCAK256 CODECOPY 0xB4 SIGNEXTEND SIGNEXTEND SLOAD 0xC5 BLOCKHASH SUB 0xC1 0x49 0xE0 0xD9 MULMOD 0xE6 DUP3 SWAP9 0x22 CREATE 0xB0 0xB7 0x2E PUSH21 0x68CE93E2D1CF023EB8FB64736F6C63430008130033 ",
  "sha1": "847879426a3aeb2651c3d7b81d98c6b970d901a5",
  "source": "// SPDX-License-Identifier: MIT\n\npragma solidity ^0.8.0;\n\nimport {Setup} from \"./Setup.sol\";\n/**\n * @title SolveMe\n * @author BlueAlder duc.tf\n */\n\ncontract SolveMe {\n    bool public isSolved = false;\n\n    function solveChallenge() external {\n        isSolved = true;\n    }\n}\n\n/**\n * @dev This is the Setup Contract which checks if the challenge is solved or not\n * (not a part of the challenge)\n */\ncontract SetupSolveMe is Setup {\n    constructor(address player_address) Setup(player_address) {}\n\n    function deploy() public override returns (address) {\n        SolveMe _instance = new SolveMe();\n        return address(_instance);\n    }\n\n    function isSolved() external view override returns (bool) {\n        return SolveMe(challenge).isSolved();\n    }\n}\n",
  "sourcePath": "contracts/SolveMe.sol",
  "type": "contract"
}